:020000040800F2
:1000000000500020750D0008710D00086F0D0008EC
:100010006F0D00086F0D00086F0D00080000000054
:10002000000000000000000000000000710D00084A
:10003000710D000800000000710D0008510100085A
:100040006F0D00086F0D00086F0D00086F0D0008A0
:100050006F0D00086F0D00086F0D00086F0D000890
:100060006F0D00086F0D00086F0D00086F0D000880
:100070006F0D00086F0D00086F0D00086F0D000870
:100080006F0D00086F0D00086F0D00086F0D000860
:100090006F0D00086F0D00086F0D00086F0D000850
:1000A0006F0D00086F0D00086F0D00086F0D000840
:1000B0006F0D00086F0D00086F0D00086F0D000830
:1000C0006F0D00086F0D00086F0D00086F0D000820
:1000D0006F0D00086F0D00086F0D00086F0D000810
:1000E0006F0D00086F0D00086F0D00086F0D000800
:1000F0006F0D00086F0D00086F0D00086F0D0008F0
:100100006F0D00086F0D00086F0D00086F0D0008DF
:100110006F0D00086F0D00086F0D00086F0D0008CF
:100120006F0D00086F0D00086F0D00086F0D0008BF
:100130006F0D00086F0D00086F0D00086F0D0008AF
:100140006F0D00086F0D00086F0D00086F0D00089F
:10015000084A08B513680133B3F5FA7F136000D07D
:1001600008BD4FF40051044800F07EF80023014A16
:10017000136008BD0C0000200010014008B500F01D
:10018000BDFB4FF4417000F083FD4FF4005300229B
:100190000221074800F010F8042000F047FE05484F
:1001A00000F032FE00F068FE00F074FE62B6FEE77A
:1001B000001001403F1901002DE9F04300264FF0E7
:1001C0000F0E98460368476848FA06F414F0010FCA
:1001D00006F1010C1DD0072E93BF9946B946A6F132
:1001E0000804B4008ABFA400A4B2A4B20EFA04F5B5
:1001F00029EA0509A51C02FA05F501FA04F42C43C5
:10020000072E44EA090405D8234666463C4627469D
:10021000DAE73C466646102EF9D103604460BDE83B
:10022000F0830000024B084340F0800018607047E4
:1002300000000140034A536823F0E0630B4303438B
:100240005360704700000140024AD3690343D36101
:10025000704700BF0000014001617047090401615F
:100260007047806808407047C36801EA030221EACA
:10027000030141EA024101617047806880B2704722
:10028000C160704741F48033836181618361836918
:100290008369704706280AD8DFE800F0040A0F14C3
:1002A000191E2300114A936843F48013936070472A
:1002B0000E4A936843F40013F8E70C4A936843F43A
:1002C0008003F3E7094A936843F40023EEE7074A03
:1002D000936843F48023E9E7044A936843F40033C6
:1002E000E4E7024A936843F48033DFE700100240FA
:1002F00006280AD8DFE800F0040A0F14191E2300AC
:10030000114A936843F48053936070470E4A936890
:1003100043F40053F8E70C4A936843F48043F3E74F
:10032000094A936843F40063EEE7074A936843F48D
:100330008063E9E7044A936843F40073E4E7024A00
:10034000936843F48073DFE70010024006280AD860
:10035000DFE800F0040A0F14191E2300114A936805
:1003600023F48053936070470E4A936823F400533C
:10037000F8E70C4A936823F48043F3E7094A93684B
:1003800023F40063EEE7074A936823F48063E9E708
:10039000044A936823F40073E4E7024A936823F461
:1003A0008073DFE70010024008B5134B062821D800
:1003B000DFE800F004080C1014181C009868C0F363
:1003C000001008BD9868C0F34010FAE79868C0F3C1
:1003D0008010F6E79868C0F3C000F2E79868C0F3B1
:1003E0008000EEE79868C0F34000EAE7986800F004
:1003F0000100E6E700F06DFD00100240024A93683C
:1004000043F400039360704700100240024B986869
:10041000C0F3C010704700BF00100240062824D867
:10042000DFE800F004090E13181D2000104B1868B7
:10043000C0F3406070470E4B1868C0F3C06070474F
:100440000B4B1868C0F340707047094B1868C0F335
:1004500040407047064B1868C0F340007047044B9B
:10046000186AF9E7024B586AF6E70020704700BFA8
:1004700000100240024608B51046FFF7CFFF0028E3
:10048000FAD008BD06282AD8DFE800F0040A0F14C5
:10049000191E2400124A136843F0807313607047DA
:1004A0000F4A136843F08063F8E70D4A136843F07E
:1004B0008053F3E70A4A136843F48033EEE7084AAF
:1004C000136843F00103E9E7054A136A43F00103A7
:1004D00013627047024A536A43F001035362704744
:1004E0000010024006282AD8DFE800F0040A0F14A2
:1004F000191E2400124A136823F08073136070479A
:100500000F4A136823F08063F8E70D4A136823F05D
:100510008053F3E70A4A136823F48033EEE7084A6E
:10052000136823F00103E9E7054A136A23F0010386
:1005300013627047024A536A23F001035362704703
:1005400000100240024A136843F40023136070470E
:1005500000100240024A136823F40023136070471E
:1005600000100240034A536823F00303034353601F
:10057000704700BF00100240034A536823F4701311
:1005800043EA80435360704700100240034AD36A35
:1005900023F4706343EA0023D362704700100240E3
:1005A000034AD36A23F4704343EA0033D3627047AB
:1005B00000100240034A536823F4803343EA0043A7
:1005C0005360704700100240034A536823F400331D
:1005D00043EA40435360704700100240024B186AE0
:1005E00000F40040704700BF00100240024A136A46
:1005F00043F40043136270470010024006283BD8C2
:10060000DFE800F035353525350415001B4B1A6A37
:1006100042F001021A621A6A9007FCD51A6A22F4A3
:1006200040721A621A6A42F480721A627047134B5F
:100630005A6A42F001025A625A6A9107FCD51A6A54
:1006400022F440721A621A6A42F40072EDE70B4B10
:100650001A6842F480321A601A689203FCD51A6A4A
:1006600022F440721A621A6A42F44072DDE7034AC9
:10067000136A23F440731362704700BF00100240F6
:10068000034A536823F4404343EA8033536070477E
:1006900000100240034A536823F4605343EAC02326
:1006A0005360704700100240034A536823F4E0632C
:1006B00043EA00235360704700100240034A536826
:1006C00023F0F00343EA0013536070470010024028
:1006D000044B5A6818B142F480025A60704722F401
:1006E0008002FAE700100240034AD36A23F00F03A6
:1006F0000343D362704700BF00100240034AD36A2D
:1007000023F0F00343EA0013D36270470010024065
:10071000044BDA6A18B142F48032DA62704722F48C
:100720008032FAE700100240024B5868C0F38100A3
:10073000704700BF0010024008B50420FFF7A2FE7A
:10074000FFF798FE0020FFF70DFFFFF7B7FF03202C
:10075000FFF796FF0420FFF7A7FF0020FFF79AFF9F
:10076000022000F0CBFB0E20FFF706FF0020FFF772
:1007700021FFFFF787FEFFF77DFE0220FFF7F2FE65
:10078000044B054A05491360054A1160054A136088
:1007900008BD00BF0090D003000000200048E80121
:1007A000080000200400002008B50420FFF76AFEBE
:1007B000FFF760FE0020FFF7D5FEFFF77FFF032065
:1007C000FFF75EFF0420FFF76FFF0020FFF762FFD7
:1007D0000E4A0120536843F48003536000F08EFBFF
:1007E0000A20FFF7C9FE0020FFF7E4FEFFF74AFEEC
:1007F000FFF740FE0220FFF7B5FE054B054A06490C
:100800001360064A1160064A136008BD00100240DA
:10081000006CDC020000002000366E0108000020A1
:100820000400002008B50420FFF72CFEFFF722FE8D
:100830000020FFF797FEFFF741FFFFF721FFFFF7CB
:1008400033FFFFF727FF00F059FB0420FFF794FE6A
:100850000020FFF7AFFEFFF715FEFFF70BFE0220AB
:10086000FFF780FE034B044A1360044A1360044AF6
:10087000136008BD00366E01000000200800002053
:100880000400002008B50420FFF7FCFDFFF7F2FD8F
:100890000020FFF767FE0320FFF7F4FDFFF7EAFDF6
:1008A0000120FFF75FFE0020FFF708FFFFF7E8FEDB
:1008B000FFF7FAFEFFF7EEFE00F020FB0120FFF746
:1008C0005BFEFFF777FE0020FFF77EFEFFF7DAFD05
:1008D000FFF7D0FD0220FFF745FE044B044A1360EA
:1008E000044A1360044A136008BD00BF00366E015D
:1008F00000000020080000200400002008B50420AB
:10090000FFF7C0FDFFF7B6FD0020FFF72BFE032029
:10091000FFF7B8FDFFF7AEFD0120FFF723FE002033
:10092000FFF7CCFE0320FFF7ABFE0420FFF7BCFE71
:100930000020FFF7AFFE022000F0E0FA0720FFF7EB
:100940001BFE0120FFF736FE0020FFF73DFEFFF7FC
:1009500099FDFFF78FFD0220FFF704FE044B054AC7
:1009600005491360054A1160054A136008BD00BFC0
:1009700000A24A04000000200051250208000020C7
:100980000400002008B50420FFF77CFDFFF772FD8E
:100990000020FFF7E7FD0320FFF774FDFFF76AFD76
:1009A0000120FFF7DFFD0020FFF788FE0220FFF7A0
:1009B00067FE0420FFF778FE0020FFF76BFE0220A1
:1009C00000F09CFA0420FFF7D7FD0120FFF7F2FDAD
:1009D0000020FFF7F9FDFFF755FDFFF74BFD022063
:1009E000FFF7C0FD044B054A05491360054A116035
:1009F000054A136008BD00BF00A24A0400000020A1
:100A000000512502080000200400002008B5042041
:100A1000FFF738FDFFF72EFD0020FFF7A3FD0320B1
:100A2000FFF730FDFFF726FD0120FFF79BFD0020BB
:100A3000FFF744FE0220FFF723FE0420FFF734FEF9
:100A40000020FFF727FE022000F058FA0720FFF7EA
:100A500093FD0120FFF7AEFDFFF7B6FD0020FFF785
:100A600011FDFFF707FD0220FFF77CFD044B054A4F
:100A700005491360054A1160054A136008BD00BFAF
:100A800000A24A04000000200051250208000020B6
:100A90000400002008B50320FFF7F4FCFFF7EAFC90
:100AA0000120FFF75FFD022000F028FA0020FFF789
:100AB00005FE0220FFF7E4FD0420FFF7F5FD00200E
:100AC000FFF7E8FD0420FFF719FE0620FFF75EFDA3
:100AD0000120FFF7D7FCFFF7CDFC0020FFF774FDE6
:100AE000104A0420D36A104943F48033D362FFF7DD
:100AF000FBFD0720FFF740FD0120FFF75BFD002015
:100B0000FFF7E6FDFFF7BEFCFFF7B4FC0220FFF79E
:100B100029FD064B064A1360064A1160064A136017
:100B200008BD00BF001002400051250200A24A0487
:100B300000000020080000200400002010B504463A
:100B40004378012B0CBF03200420FFF79BFCFFF729
:100B500091FCA078FFF7B2FDE078FFF7A5FD2079C2
:100B6000FFF798FD6079FFF78BFD207BFFF7B0FD65
:100B7000A07900F0C3F92078FFF7FEFC6078FFF75A
:100B800019FDE07901282DD9FFF7AEFD207A08B1D3
:100B9000FFF7BEFD607A08B1FFF7B0FDA07A30B173
:100BA000FFF7F4FC0120FFF76DFCFFF763FCE07A30
:100BB00030B1FFF7F5FC0220FFF764FCFFF75AFCA9
:100BC0000020FFF75FFCFFF755FC0220FFF7CAFC8F
:100BD0002269064B1A606269054B1A60A269054BCF
:100BE0001A6010BDFFF7F0FCD0E700BF0000002046
:100BF0000800002004000020044B1A6A42F48032EE
:100C00001A621A6A22F480321A6270470010024097
:100C1000034B98420CBF034B034B1868704700BF4F
:100C2000003801400400002008000020094B00F1BA
:100C30004040B0F5005F5B6806D8074A13F4E06FE8
:100C4000106818BF40007047044A13F4605F1068D2
:100C5000F7E700BF00100240080000200400002059
:100C6000014B1868704700BF0800002003680B4361
:100C700003607047036823EA010303607047036859
:100C8000194301607047036823EA0103036070475A
:100C90000122430903F1804303F50433196800F08E
:100CA0001F0082400A431A6070470121430903F183
:100CB000804303F504331A6800F01F00814022EAE4
:100CC00001021A6070470122430903F1804303F5D2
:100CD0000433196800F01F0082401143196019683D
:100CE00021EA02021A607047FFF7D2BFFFF7DDBFAB
:100CF000034A536823F0706343EA0063536070470C
:100D000000100240032802D0052806D07047064A8A
:100D1000136843F4802313607047034A136A43F057
:100D200004031362704700BF00100240032802D082
:100D3000052806D07047064A136823F48023136001
:100D40007047034A136A23F004031362704700BF1D
:100D50000010024007284FF0010306D90B2894BF6A
:100D600007380638834098B2704718467047FEE748
:100D70007047000038B51A4A1A4B1B498B421AD3E8
:100D800000211A4A93421BD34FF0E022D2F8143DBF
:100D9000174C43F40073174DC2F8143DAC4212D304
:100DA000154C164DAC4212D3FFF7E8F9144C154D13
:100DB000AC4210D338BD52F8040B43F8040BDDE706
:100DC00043F8041BDEE754F8043B9847E6E754F881
:100DD000043B9847E6E754F8043B9847E8E700BF30
:100DE00008100008000000200C0000201000002067
:100DF0000810000808100008081000080810000873
:100E000008100008081000084FF0E02320F07F4091
:100E1000586170474FF0E023586920F07F407047D9
:100E20004FF0E023986920F07F4070474FF0E022B8
:100E3000136900F0040023F00403034313617047B7
:100E4000B1FBF0F108B50B4B994210D86FF07F431E
:100E500099422ABF00200420C908FFF7E7FF4FF09E
:100E6000E0230120013921F07F41596108BD0020B4
:100E7000FCE700BFF7FFFF074FF0E022136943F0E4
:100E80000203136170474FF0E022136923F002035D
:100E9000136170474FF0E022136943F001031361BF
:100EA00070474FF0E022136923F00103136170478C
:100EB0004FF0E0231869C0F3004070474FF0E02383
:100EC00000229A6170474FF0E023D86920F07F40FC
:100ED0007047FEE708B5FFF7FCFF0000024A136801
:100EE00043F010031360704700200240024A136869
:100EF00023F010031360704700200240034A136878
:100F000023F0070303431360704700BF0020024033
:100F1000034B044A9A6002F188329A60704700BF1E
:100F2000002002402301674504000000000000008B
:100F3000000000000000000000366E0100366E0167
:100F400000366E010A0000040003010000000000EA
:100F500001000000006CDC0200366E01006CDC0257
:100F60000E0000040003020000000000000000006A
:100F70000090D0030048E8010090D0030401000471
:100F800000020200000000000000000000A24A046D
:100F90000051250200A24A040701000400020201D8
:100FA000000000000000000000A24A0400512502D9
:100FB00000A24A0407010004000202040104060022
:100FC0000000000000A24A040051250200A24A04C9
:100FD000010100000000000000000000000000000F
:100FE00000366E0100366E0100366E010701000406
:100FF00000030200000000000000000000A24A04FC
:081000000051250200A24A0480
:0C10080000127A0000127A0000127A0038
:0400000508000D756D
:00000001FF
